{
  "contractName": "Booking",
  "abi": [
    {
      "constant": true,
      "inputs": [
        {
          "name": "",
          "type": "uint256"
        }
      ],
      "name": "bookings",
      "outputs": [
        {
          "name": "",
          "type": "address"
        }
      ],
      "payable": false,
      "stateMutability": "view",
      "type": "function"
    },
    {
      "inputs": [],
      "payable": false,
      "stateMutability": "nonpayable",
      "type": "constructor"
    },
    {
      "constant": false,
      "inputs": [
        {
          "name": "propertyId",
          "type": "uint256"
        }
      ],
      "name": "book",
      "outputs": [
        {
          "name": "",
          "type": "uint256"
        }
      ],
      "payable": true,
      "stateMutability": "payable",
      "type": "function"
    },
    {
      "constant": true,
      "inputs": [],
      "name": "getBookings",
      "outputs": [
        {
          "name": "",
          "type": "address[8]"
        }
      ],
      "payable": false,
      "stateMutability": "view",
      "type": "function"
    },
    {
      "constant": true,
      "inputs": [],
      "name": "getProperty",
      "outputs": [
        {
          "name": "_booker",
          "type": "address"
        },
        {
          "name": "_name",
          "type": "string"
        },
        {
          "name": "_propertyType",
          "type": "string"
        },
        {
          "name": "_capacity",
          "type": "uint256"
        },
        {
          "name": "_location",
          "type": "string"
        },
        {
          "name": "_rate",
          "type": "uint256"
        }
      ],
      "payable": false,
      "stateMutability": "view",
      "type": "function"
    }
  ],
  "bytecode": "0x60606040526000600f60006101000a81548173ffffffffffffffffffffffffffffffffffffffff021916908373ffffffffffffffffffffffffffffffffffffffff160217905550341561005157600080fd5b6000600881905550610792806100686000396000f300606060405260043610610062576000357c0100000000000000000000000000000000000000000000000000000000900463ffffffff16806307751070146100675780631116fd041461020e5780631dab301e1461023a578063955c84201461029d575b600080fd5b341561007257600080fd5b61007a6102ee565b604051808773ffffffffffffffffffffffffffffffffffffffff1673ffffffffffffffffffffffffffffffffffffffff168152602001806020018060200186815260200180602001858152602001848103845289818151815260200191508051906020019080838360005b838110156101005780820151818401526020810190506100e5565b50505050905090810190601f16801561012d5780820380516001836020036101000a031916815260200191505b50848103835288818151815260200191508051906020019080838360005b8381101561016657808201518184015260208101905061014b565b50505050905090810190601f1680156101935780820380516001836020036101000a031916815260200191505b50848103825286818151815260200191508051906020019080838360005b838110156101cc5780820151818401526020810190506101b1565b50505050905090810190601f1680156101f95780820380516001836020036101000a031916815260200191505b50995050505050505050505060405180910390f35b6102246004808035906020019091905050610523565b6040518082815260200191505060405180910390f35b341561024557600080fd5b61025b600480803590602001909190505061065d565b604051808273ffffffffffffffffffffffffffffffffffffffff1673ffffffffffffffffffffffffffffffffffffffff16815260200191505060405180910390f35b34156102a857600080fd5b6102b0610692565b6040518082600860200280838360005b838110156102db5780820151818401526020810190506102c0565b5050505090500191505060405180910390f35b60006102f8610713565b610300610713565b600061030a610713565b6000600e60009054906101000a900473ffffffffffffffffffffffffffffffffffffffff16600b600c600954600d600a54848054600181600116156101000203166002900480601f0160208091040260200160405190810160405280929190818152602001828054600181600116156101000203166002900480156103d05780601f106103a5576101008083540402835291602001916103d0565b820191906000526020600020905b8154815290600101906020018083116103b357829003601f168201915b50505050509450838054600181600116156101000203166002900480601f01602080910402602001604051908101604052809291908181526020018280546001816001161561010002031660029004801561046c5780601f106104415761010080835404028352916020019161046c565b820191906000526020600020905b81548152906001019060200180831161044f57829003601f168201915b50505050509350818054600181600116156101000203166002900480601f0160208091040260200160405190810160405280929190818152602001828054600181600116156101000203166002900480156105085780601f106104dd57610100808354040283529160200191610508565b820191906000526020600020905b8154815290600101906020018083116104eb57829003601f168201915b50505050509150955095509550955095509550909192939495565b6000808210158015610536575060078211155b151561054157600080fd5b33600e60006101000a81548173ffffffffffffffffffffffffffffffffffffffff021916908373ffffffffffffffffffffffffffffffffffffffff160217905550600e60009054906101000a900473ffffffffffffffffffffffffffffffffffffffff166000836008811015156105b457fe5b0160006101000a81548173ffffffffffffffffffffffffffffffffffffffff021916908373ffffffffffffffffffffffffffffffffffffffff160217905550600f60009054906101000a900473ffffffffffffffffffffffffffffffffffffffff1673ffffffffffffffffffffffffffffffffffffffff166108fc349081150290604051600060405180830381858888f19350505050151561065557600080fd5b819050919050565b60008160088110151561066c57fe5b016000915054906101000a900473ffffffffffffffffffffffffffffffffffffffff1681565b61069a610727565b6000600880602002604051908101604052809291908260088015610709576020028201915b8160009054906101000a900473ffffffffffffffffffffffffffffffffffffffff1673ffffffffffffffffffffffffffffffffffffffff16815260200190600101908083116106bf575b5050505050905090565b602060405190810160405280600081525090565b610100604051908101604052806008905b600073ffffffffffffffffffffffffffffffffffffffff1681526020019060019003908161073857905050905600a165627a7a7230582054d1c059a5c21c88bda39a14b3414456e3f68a9305234158d4da5267c3e4485d0029",
  "source": "pragma solidity ^0.4.19;\n\ncontract Booking {\n  address[8] public bookings;\n  uint256 revenue;\n  uint256 capacity;\n  uint256 rate;\n  string name;\n  string propertyType;\n  string location;\n  address booker;\n  address receiveValue = 0x0;\n\n  function Booking() public{\n    revenue = 0;\n  }\n\n  //book a property by adding the address of the booker to the bookings array\n  function book(uint propertyId) payable public returns(uint){\n    require(propertyId >= 0 && propertyId <= 7);\n    booker = msg.sender;\n    bookings[propertyId] = booker;\n\n    //pay contract from buyer's account\n    receiveValue.transfer(msg.value);\n    return propertyId;\n  }\n\n  //retrieve booking status of all properties\n  function getBookings() public view returns (address[8]) {\n    return bookings;\n  }\n\n  function getProperty() public view returns (address _booker, string _name, string _propertyType, uint256 _capacity, string _location, uint256 _rate) {\n      return(booker, name, propertyType, capacity, location, rate);\n}\n\n}\n",
  "sourcePath": "/Users/sage/Playground/blockchain101/bnbextended/contracts/Booking.sol",
  "compiler": {
    "name": "solc",
    "version": "0.4.19+commit.c4cbbb05.Emscripten.clang"
  },
  "schemaVersion": "1.0.1",
  "updatedAt": "2018-02-22T23:17:31.024Z"
}