{
  "contractName": "Booking",
  "abi": [
    {
      "inputs": [],
      "payable": false,
      "stateMutability": "nonpayable",
      "type": "constructor"
    },
    {
      "constant": false,
      "inputs": [
        {
          "name": "propertyId",
          "type": "uint256"
        }
      ],
      "name": "book",
      "outputs": [
        {
          "name": "",
          "type": "uint256"
        }
      ],
      "payable": false,
      "stateMutability": "nonpayable",
      "type": "function"
    },
    {
      "constant": true,
      "inputs": [],
      "name": "getBookings",
      "outputs": [
        {
          "name": "",
          "type": "address[8]"
        }
      ],
      "payable": false,
      "stateMutability": "view",
      "type": "function"
    }
  ],
  "bytecode": "0x6060604052341561000f57600080fd5b61023a8061001e6000396000f30060606040526004361061004c576000357c0100000000000000000000000000000000000000000000000000000000900463ffffffff1680631116fd0414610051578063955c842014610088575b600080fd5b341561005c57600080fd5b61007260048080359060200190919050506100d9565b6040518082815260200191505060405180910390f35b341561009357600080fd5b61009b61014e565b6040518082600860200280838360005b838110156100c65780820151818401526020810190506100ab565b5050505090500191505060405180910390f35b60008082101580156100ec575060078211155b15156100f757600080fd5b3360008360088110151561010757fe5b0160006101000a81548173ffffffffffffffffffffffffffffffffffffffff021916908373ffffffffffffffffffffffffffffffffffffffff160217905550819050919050565b6101566101cf565b60006008806020026040519081016040528092919082600880156101c5576020028201915b8160009054906101000a900473ffffffffffffffffffffffffffffffffffffffff1673ffffffffffffffffffffffffffffffffffffffff168152602001906001019080831161017b575b5050505050905090565b610100604051908101604052806008905b600073ffffffffffffffffffffffffffffffffffffffff168152602001906001900390816101e057905050905600a165627a7a7230582030349114e0e43b7c07a08a0515474a69fb99e20118d69efcb3733d5b89fcd4a80029",
  "source": "pragma solidity ^0.4.19;\n\ncontract Booking {\n  address[8] bookings;\n\n  function Booking(){\n    //constructor\n  }\n\n  //book a property by adding the address of the booker to the bookings array\n  function book(uint propertyId) public returns(uint){\n    require(propertyId >= 0 && propertyId <= 7);\n    bookings[propertyId] = msg.sender;\n\n    return propertyId;\n  }\n\n  //retrieve booking status of all properties\n  function getBookings() public view returns (address[8]) {\n    return bookings;\n  }\n\n}\n",
  "sourcePath": "/Users/sage/Playground/blockchain101/bnb/contracts/Booking.sol",
  "compiler": {
    "name": "solc",
    "version": "0.4.19+commit.c4cbbb05.Emscripten.clang"
  },
  "schemaVersion": "1.0.1",
  "updatedAt": "2018-02-21T17:57:42.910Z"
}